:020000040800F2
:1000000000500020891C0008D11C0008D11C0008E9
:10001000D11C0008D11C0008D11C00080000000001
:10002000000000000000000000000000D11C0008DB
:10003000D11C000800000000D11C0008D11C0008E1
:10004000D11C0008D11C0008D11C0008D11C0008DC
:10005000D11C0008D11C0008D11C0008D11C0008CC
:10006000D11C0008D11C0008D11C0008D11C0008BC
:10007000D11C0008D11C0008D11C0008D11C0008AC
:10008000D11C0008D11C0008D11C0008D11C00089C
:10009000D11C0008D11C0008D11C0008D11C00088C
:1000A000D11C0008D11C0008D11C0008D11C00087C
:1000B000D11C0008D11C0008D11C0008D11C00086C
:1000C000D11C0008D11C0008D11C0008D11C00085C
:1000D000D11C0008D11C0008D11C0008D11C00084C
:1000E000D11C0008D11C0008D11C00080000000031
:1000F0000000000000000000000000000000000000
:0C01000000000000000000005FF808F1A3
:10010C00A3F5803A704700BF174B002B08BF134B69
:10011C009D46FFF7F5FF00218B460F461348144A06
:10012C00121A01F073FF0E4B002B00D098470D4BA9
:10013C00002B00D098470020002104000D000D4832
:10014C00002802D00C48AFF3008002F011F8200018
:10015C00290000F013F801F0B7FD00BF0000080003
:10016C0000000000000000000000000070000020F3
:10017C00E8010020000000000000000080B500AF86
:10018C0001F08AF900F00EF800F012F84FF400516B
:10019C00034800F050FB4FF4FA7001F039FAF5E720
:1001AC000010014080B400AF00BFBD4680BC70475A
:1001BC0080B586B000AF134B9B69124A43F0100315
:1001CC009361104B9B6903F010037B607B6807F114
:1001DC00080300221A605A609A60DA604FF40053E8
:1001EC00BB600123FB6000233B6102237B6107F1B1
:1001FC0008031946044800F0AFF800BF1837BD4695
:10020C0080BD00BF001002400010014080B400AF60
:10021C00154B1B68144A43F001031360124B5A68C8
:10022C001149124B13404B600F4B1B680E4A23F0C5
:10023C00847323F4803313600B4B1B680A4A23F43A
:10024C0080231360084B5B68074A23F4FE0353605A
:10025C00054B4FF41F029A60054B4FF000629A60F9
:10026C0000BFBD4680BC7047001002400000FFF884
:10027C0000ED00E080B485B000AF0023FB600023EC
:10028C00BB6000237B602F4B5B6803F00C03FB60AF
:10029C00FB68082B11D0FB68082B3AD8FB68002BA5
:1002AC0003D0FB68042B04D033E0274B274A1A6099
:1002BC0033E0254B254A1A602FE0224B5B6803F490
:1002CC007013BB601F4B5B6803F480337B60BB68AF
:1002DC009B0C0233BB607B68002B06D1BB681C4AAD
:1002EC0002FB03F3184A136017E0164B5B6803F428
:1002FC000033002B06D0BB68154A02FB03F3124AED
:10030C0013600AE0BB68114A02FB03F30E4A136048
:10031C0003E00D4B0D4A1A6000BF0A4B5B681B09CA
:10032C0003F00F030B4AD35CFB60074B1A68FB68A6
:10033C0022FA03F3044A136000BF1437BD4680BC95
:10034C00704700BF001002400000002000127A002D
:10035C0000093D005C25000880B48BB000AF7860CC
:10036C00396000237B6200233B6269E101227B6AD6
:10037C0002FA03F3FB613B681B68FA691340BB612B
:10038C00BA69FB699A4240F058813B685B689A4AAB
:10039C0093425ED0984A934275D8984A934258D06B
:1003AC00964A93426FD8964A934252D0944A9342BB
:1003BC0069D8944A93424CD0924A934263D8924A59
:1003CC00934246D0904A93425DD8122B2AD8122BD6
:1003DC0059D801A252F823F05F0400083904000830
:1003EC004B0400088D0400089304000893040008D3
:1003FC009304000893040008930400089304000875
:10040C009304000893040008930400089304000864
:10041C0093040008930400089304000841040008A6
:10042C0055040008794A934213D02CE03B68DB68F2
:10043C003B6229E03B68DB6804333B6224E03B68A9
:10044C00DB6808333B621FE03B68DB680C333B62C4
:10045C001AE03B689B68002B02D104233B6213E03B
:10046C003B689B68012B05D108233B627B68FA69CA
:10047C001A6109E008233B627B68FA695A6103E060
:10048C0000233B6200E000BFBB69FF2B01D87B68F7
:10049C0001E07B6804337B61BB69FF2B02D87B6A6C
:1004AC009B0002E07B6A083B9B003B617B691A68FE
:1004BC000F213B6901FA03F3DB431A40396A3B69AC
:1004CC0001FA03F31A437B691A603B685B6803F01B
:1004DC008053002B00F0B1804D4B9B694C4A43F08C
:1004EC00010393614A4B9B6903F00103BB60BB683A
:1004FC00484A7B6A9B08023352F82330FB607B6AC4
:10050C0003F003039B000F2202FA03F3DB43FA68A8
:10051C001340FB607B68404A934213D07B683F4A90
:10052C0093420DD07B683E4A934207D07B683D4A8C
:10053C00934201D1032306E0042304E0022302E0EA
:10054C00012300E000237A6A02F003029200934038
:10055C00FA681343FB602F497B6A9B080233FA68E5
:10056C0041F823203B685B6803F48033002B06D0F2
:10057C002D4B1A682C49BB6913430B6006E02A4BC0
:10058C001A68BB69DB43284913400B603B685B6806
:10059C0003F40033002B06D0234B5A682249BB6965
:1005AC0013434B6006E0204B5A68BB69DB431E4982
:1005BC0013404B603B685B6803F48013002B06D040
:1005CC00194B9A681849BB6913438B6006E0164BAC
:1005DC009A68BB69DB43144913408B603B685B68CA
:1005EC0003F40013002B21D00F4BDA680E49BB69C2
:1005FC001343CB6021E000BF00003210000031102B
:10060C000000221000002110000012100000111038
:10061C00001002400000014000080140000C0140A5
:10062C000010014000140140000401400B4BDA683B
:10063C00BB69DB4309491340CB607B6A01337B62A6
:10064C003B681A687B6A22FA03F3002B7FF48EAEA8
:10065C0000BF00BF2C37BD4680BC70470004014072
:10066C0080B489B000AF786039600023FB619AE0F8
:10067C000122FB6902FA03F33A681340BB61BB69C0
:10068C00002B00F08D804E4AFB699B08023352F818
:10069C0023307B61FB6903F003039B000F2202FAFA
:1006AC0003F37A6913407B617B68464A934213D00B
:1006BC007B68454A93420DD07B68444A934207D0ED
:1006CC007B68434A934201D1032306E0042304E0F0
:1006DC00022302E0012300E00023FA6902F0030286
:1006EC00920093407A699A4232D1FB6903F003037A
:1006FC009B000F2202FA03F37B61314AFB699B08D2
:10070C00023352F823107B69DA432D48FB699B08AE
:10071C000A40023340F823202E4B1A68BB69DB4396
:10072C002C4913400B602B4B5A68BB69DB4329499E
:10073C0013404B60274B9A68BB69DB432549134038
:10074C008B60244BDA68BB69DB4322491340CB60D6
:10075C00BB69FF2B01D87B6801E07B6804333B61EC
:10076C00BB69FF2B02D8FB699B0002E0FB69083BCD
:10077C009B00FB603B691A680F21FB6801FA03F3CD
:10078C00DB431A400421FB6801FA03F31A433B696B
:10079C001A607B68DA68BB69DB431A407B68DA60F5
:1007AC00FB690133FB613A68FB6922FA03F3002B06
:1007BC007FF45EAF00BF00BF2437BD4680BC7047DE
:1007CC000000014000080140000C014000100140F5
:1007DC00001401400004014080B485B000AF786083
:1007EC000B467B807B689A687B881340002B02D079
:1007FC000123FB7301E00023FB73FB7B18461437CA
:10080C00BD4680BC704780B483B000AF78600B46A7
:10081C007B8013467B707B78002B03D07A887B68B7
:10082C001A6103E07B881A047B681A6100BF0C37DD
:10083C00BD4680BC704780B483B000AF78600B4677
:10084C007B807B68DA687B881340002B03D07A8826
:10085C007B685A6102E07A887B681A6100BF0C37AA
:10086C00BD4680BC704780B485B000AF78600B4645
:10087C007B804FF48033FB607A88FB681343FB600A
:10088C00FA687B689A617A887B689A61FA687B68F7
:10089C009A617B689B69FB607B689B6903F480337E
:1008AC00002B01D0002300E0012318461437BD466D
:1008BC0080BC704780B582B000AF0346FB80084B0C
:1008CC005A69FB881340002B06D0054AFB885361FC
:1008DC00FB88184600F006F800BF0837BD4680BDFF
:1008EC000004014080B483B000AF0346FB8000BF1E
:1008FC000C37BD4680BC704780B582B000AF00F0AD
:10090C0047FE7860454B1B68444A43F00103136073
:10091C0008E000F03DFE02467B68D31A022B01D999
:10092C00032377E03D4B1B6803F00203002BF0D050
:10093C003A4B1B6823F0F803384A43F080031360EA
:10094C0000F026FE7860354B00225A600AE000F079
:10095C001FFE02467B68D31A41F28832934201D9BA
:10096C00032357E02D4B5B6803F00C03002BEED1F7
:10097C002B4B2C4A1A602C4B1B68184600F0C6FDFA
:10098C000346002B01D0012344E000F001FE786007
:10099C00224B1B68214A23F08073136008E000F09F
:1009AC00F7FD02467B68D31A022B01D9032331E0F1
:1009BC001A4B1B6803F00073002BF0D1174B00226D
:1009CC005A6000F0E5FD7860144B1B68134A23F461
:1009DC001023136008E000F0DBFD02467B68D31A9D
:1009EC00642B01D9032315E00C4B1B6803F4003373
:1009FC00002BF0D1094B1B68084A23F480231360A9
:100A0C00064B5B6A054A43F080735362034B00222A
:100A1C009A60002318460837BD4680BD001002407E
:100A2C000000002000127A000400002080B586B07F
:100A3C0000AF78607B68002B01D1012372E27B68E8
:100A4C001B6803F00103002B00F08780924B5B685E
:100A5C0003F00C03042B0CD08F4B5B6803F00C03DE
:100A6C00082B12D18C4B5B6803F48033B3F5803FB9
:100A7C000BD1894B1B6803F40033002B6CD07B68C3
:100A8C005B68002B68D101234CE27B685B68B3F593
:100A9C00803F06D1804B1B687F4A43F48033136040
:100AAC002EE07B685B68002B0CD17B4B1B687A4A71
:100ABC0023F480331360784B1B68774A23F480232C
:100ACC0013601DE07B685B68B3F5A02F0CD1724BF3
:100ADC001B68714A43F4802313606F4B1B686E4A8A
:100AEC0043F4803313600BE06B4B1B686A4A23F4AE
:100AFC0080331360684B1B68674A23F480231360B0
:100B0C007B685B68002B13D000F042FD386108E075
:100B1C0000F03EFD02463B69D31A642B01D9032336
:100B2C0000E25D4B1B6803F40033002BF0D014E0A3
:100B3C0000F02EFD386108E000F02AFD02463B690A
:100B4C00D31A642B01D90323ECE1534B1B6803F438
:100B5C000033002BF0D100E000BF7B681B6803F072
:100B6C000203002B63D04C4B5B6803F00C03002B8F
:100B7C000BD0494B5B6803F00C03082B1CD1464B84
:100B8C005B6803F48033002B16D1434B1B6803F0D6
:100B9C000203002B05D07B681B69012B01D00123BC
:100BAC00C0E13D4B1B6823F0F8027B685B69DB00FE
:100BBC00394913430B603AE07B681B69002B20D04A
:100BCC00364B01221A6000F0E3FC386108E000F0BB
:100BDC00DFFC02463B69D31A022B01D90323A1E1A6
:100BEC002D4B1B6803F00203002BF0D02A4B1B6823
:100BFC0023F0F8027B685B69DB00274913430B6029
:100C0C0015E0264B00221A6000F0C2FC386108E0A7
:100C1C0000F0BEFC02463B69D31A022B01D9032318
:100C2C0080E11D4B1B6803F00203002BF0D17B68A5
:100C3C001B6803F00803002B3AD07B689B69002BE0
:100C4C0019D0174B01221A6000F0A2FC386108E0A1
:100C5C0000F09EFC02463B69D31A022B01D90323F8
:100C6C0060E10D4B5B6A03F00203002BF0D0012016
:100C7C0000F0EEFB1CE00A4B00221A6000F088FC2E
:100C8C0038610FE000F084FC02463B69D31A022B5A
:100C9C0008D9032346E100BF001002400000424285
:100CAC0080044242924B5B6A03F00203002BE9D1B1
:100CBC007B681B6803F00403002B00F0A680002364
:100CCC00FB758B4BDB6903F08053002B0DD1884BEC
:100CDC00DB69874A43F08053D361854BDB6903F0B2
:100CEC008053BB60BB680123FB75824B1B6803F40C
:100CFC008073002B18D17F4B1B687E4A43F48073A2
:100D0C00136000F045FC386108E000F041FC02463D
:100D1C003B69D31A642B01D9032303E1754B1B6880
:100D2C0003F48073002BF0D07B68DB68012B06D1B9
:100D3C006F4B1B6A6E4A43F0010313622DE07B6814
:100D4C00DB68002B0CD16A4B1B6A694A23F0010348
:100D5C001362674B1B6A664A23F0040313621CE0A0
:100D6C007B68DB68052B0CD1614B1B6A604A43F036
:100D7C00040313625E4B1B6A5D4A43F0010313626A
:100D8C000BE05B4B1B6A5A4A23F001031362584B6E
:100D9C001B6A574A23F0040313627B68DB68002B41
:100DAC0015D000F0F5FB38610AE000F0F1FB0246CB
:100DBC003B69D31A41F28832934201D90323B1E043
:100DCC004B4B1B6A03F00203002BEED014E000F037
:100DDC00DFFB38610AE000F0DBFB02463B69D31A0B
:100DEC0041F28832934201D903239BE0404B1B6AAA
:100DFC0003F00203002BEED1FB7D012B05D13C4B04
:100E0C00DB693B4A23F08053D3617B68DB69002BA1
:100E1C0000F08780364B5B6803F00C03082B61D025
:100E2C007B68DB69022B46D1334B00221A6000F041
:100E3C00AFFB386108E000F0ABFB02463B69D31A0C
:100E4C00022B01D903236DE0294B1B6803F00073BF
:100E5C00002BF0D17B681B6AB3F5803F08D1244B83
:100E6C005B6823F400327B689B68214913434B6019
:100E7C001F4B5B6823F474127B68196A7B685B6A8E
:100E8C000B431B4913434B601B4B01221A6000F0B0
:100E9C007FFB386108E000F07BFB02463B69D31A0C
:100EAC00022B01D903233DE0114B1B6803F00073A7
:100EBC00002BF0D035E0104B00221A6000F068FBDC
:100ECC00386108E000F064FB02463B69D31A022B40
:100EDC0001D9032326E0064B1B6803F00073002B9B
:100EEC00F0D11EE07B68DB69012B07D1012319E0EF
:100EFC000010024000700040600042420B4B5B68E7
:100F0C00FB60FB6803F480327B681B6A9A4206D153
:100F1C00FB6803F470127B685B6A9A4201D0012370
:100F2C0000E0002318461837BD4680BD0010024073
:100F3C0080B584B000AF786039607B68002B01D13C
:100F4C000123D0E06A4B1B6803F007033A689A420E
:100F5C0010D9674B1B6823F0070265493B681343A4
:100F6C000B60634B1B6803F007033A689A4201D08D
:100F7C000123B8E07B681B6803F00203002B20D030
:100F8C007B681B6803F00403002B05D0594B5B688E
:100F9C00584A43F4E06353607B681B6803F0080312
:100FAC00002B05D0534B5B68524A43F4605353609B
:100FBC00504B5B6823F0F0027B689B684D491343F0
:100FCC004B607B681B6803F00103002B40D07B68EF
:100FDC005B68012B07D1474B1B6803F40033002BD4
:100FEC0015D101237FE07B685B68022B07D1414B55
:100FFC001B6803F00073002B09D1012373E03D4BF8
:10100C001B6803F00203002B01D101236BE0394B69
:10101C005B6823F003027B685B68364913434B60C3
:10102C0000F0B6FAF8600AE000F0B2FA0246FB688B
:10103C00D31A41F28832934201D9032353E02D4B4A
:10104C005B6803F00C027B685B689B009A42EBD1F7
:10105C00274B1B6803F007033A689A4210D2244BC3
:10106C001B6823F0070222493B6813430B60204B9B
:10107C001B6803F007033A689A4201D0012332E05F
:10108C007B681B6803F00403002B08D0194B5B68CA
:10109C0023F4E0627B68DB68164913434B607B6882
:1010AC001B6803F00803002B09D0124B5B6823F478
:1010BC0060527B681B69DB000E4913434B6000F0E8
:1010CC0071F802460B4B5B681B0903F00F030A49CE
:1010DC00CB5C22FA03F3094A1360094B1B681846D0
:1010EC0000F014FA002318461037BD4680BD00BF2F
:1010FC0000200240001002405C2500080000002087
:10110C000400002080B58AB000AFF860B9607A6046
:10111C0007F1180300221A605A609A60DA60022301
:10112C00FB6103237B6200233B624FF48073BB6142
:10113C000E4B9B690D4A43F0040393610B4B9B6967
:10114C0003F004037B617B6907F118031946084817
:10115C00FFF702F9054B5B6823F0E0620349BB68BB
:10116C0013434B6000BF2837BD4680BD00100240C2
:10117C000008014080B400AF034B01221A6000BF8D
:10118C00BD4680BC704700BF4C00424280B400AFEB
:10119C00034B00221A6000BFBD4680BC704700BFE5
:1011AC004C00424290B48AB000AF294B3C1D0FCB8F
:1011BC0084E80F0040F201233B800023FB610023F5
:1011CC00BB6100237B6200237B6100233B62214BCC
:1011DC005B68FB61FB6903F00C03042B02D0082B4A
:1011EC0003D02BE01C4B3B622BE0FB699B0C03F008
:1011FC000F0328333B4413F8243C7B61FB6903F455
:10120C008033002B12D0134B5B685B0C03F0010393
:10121C0028333B4413F8283CBB617B690E4A03FB23
:10122C0002F2BB69B2FBF3F37B6204E07B690B4A0D
:10123C0002FB03F37B627B6A3B6202E0064B3B6280
:10124C0000BF3B6A18462837BD4690BC704700BFAC
:10125C00742500080010024000127A0000093D00BD
:10126C0080B400AF024B1B681846BD4680BC70476B
:10127C000000002080B500AFFFF7F2FF0246054BDF
:10128C005B681B0A03F007030349CB5C22FA03F3E8
:10129C00184680BD001002406C25000880B500AFD8
:1012AC00FFF7DEFF0246054B5B68DB0A03F0070322
:1012BC000349CB5C22FA03F3184680BD00100240B0
:1012CC006C25000880B483B000AF78607B680F2277
:1012DC001A603C4B1B6803F48023B3F5802F04D1B8
:1012EC007B684FF4A0225A600EE0364B1B6803F467
:1012FC008033B3F5803F04D17B684FF480325A6061
:10130C0002E07B6800225A602E4B5B6803F40032CB
:10131C007B689A602B4B1B6803F00103012B03D1F4
:10132C007B6801221A6102E07B6800221A61254B5E
:10133C001B68DB0803F01F027B685A61214B1B6A98
:10134C0003F00403042B03D17B680522DA600CE064
:10135C001C4B1B6A03F00103012B03D17B68012298
:10136C00DA6002E07B680022DA60164B5B6A03F0FD
:10137C000103012B03D17B6801229A6102E07B6897
:10138C0000229A610F4B1B6803F08073B3F1807FCE
:10139C0003D17B680222DA6102E07B680122DA6108
:1013AC00084B5B6803F480327B681A62054B5B6800
:1013BC0003F470127B685A6200BF0C37BD4680BCC8
:1013CC00704700BF0010024080B483B000AF78605B
:1013DC0039607B680F221A60114B5B6803F00302C3
:1013EC007B685A600E4B5B6803F0F0027B689A6076
:1013FC000B4B5B6803F4E0627B68DA60084B5B685C
:10140C00DB0803F4E0627B681A61064B1B6803F08F
:10141C0007023B681A6000BF0C37BD4680BC7047A2
:10142C00001002400020024080B500AF064B9B68C4
:10143C0003F08003802B04D100F028F8034B8022AA
:10144C001A7000BF80BD00BF001002400A1002409D
:10145C0080B485B000AF78600A4B1B680A4AA2FBC7
:10146C0003235B0A7A6802FB03F3FB6000BFFB6893
:10147C005A1EFA60002BF9D100BF00BF1437BD46CD
:10148C0080BC704700000020D34D621080B400AFC8
:10149C0000BFBD4680BC704780B500AF084B1B68D1
:1014AC00074A43F010031360032000F035FA0F20B5
:1014BC0000F02CF800F01EF80023184680BD00BF89
:1014CC000020024080B500AF094B4FF0FF32DA60CC
:1014DC00074B00221A61064B4FF0FF32DA60044BC7
:1014EC000022DA6000F00CF80023184680BD00BF23
:1014FC000010024080B400AF00BFBD4680BC7047F6
:10150C0080B400AF00BFBD4680BC704780B582B0D0
:10151C0000AF7860124B1A68124B1B7819464FF4C7
:10152C007A73B3FBF1F3B2FBF3F3184600F01BFA3A
:10153C000346002B01D001230EE07B680F2B0AD849
:10154C00002279684FF0FF3000F0F1F9064A7B6811
:10155C001360002300E0012318460837BD4680BD08
:10156C0000000020080000200400002080B400AF20
:10157C00054B1B781A46054B1B681344034A136032
:10158C0000BFBD4680BC70470800002070000020E2
:10159C0080B400AF024B1B681846BD4680BC704738
:1015AC007000002080B400AF024B1B681846BD468B
:1015BC0080BC70470400002080B584B000AF0346A7
:1015CC00FB710023FB730B4B1B78FA799A420CD0FE
:1015DC00094B1B681846FFF799FF0346FB73FB7B0F
:1015EC00002B02D1034AFB791370FB7B1846103792
:1015FC00BD4680BD080000200400002080B400AF70
:10160C00024B1B781846BD4680BC70470800002072
:10161C0080B584B000AF7860FFF7BAFFB8607B6824
:10162C00FB60FB68B3F1FF3F05D00A4B1B781A46F1
:10163C00FB681344FB6000BFFFF7AAFF0246BB68C0
:10164C00D31AFA689A42F7D800BF00BF1037BD46CC
:10165C0080BD00BF0800002080B400AF044B1B68A5
:10166C00034A23F00203136000BFBD4680BC7047E1
:10167C0010E000E080B400AF044B1B68034A43F059
:10168C000203136000BFBD4680BC704710E000E051
:10169C0080B400AF024B1846BD4680BC704700BFFB
:1016AC000004010180B400AF034B1B681B0C1846EF
:1016BC00BD4680BC704700BF002004E080B400AF82
:1016CC00034B1B68C3F30B031846BD4680BC704725
:1016DC00002004E080B400AF024B1B681846BD46E6
:1016EC0080BC7047E8F7FF1F80B400AF024B1B684B
:1016FC001846BD4680BC7047ECF7FF1F80B400AFA6
:10170C00024B1B681846BD4680BC7047F0F7FF1FA4
:10171C0080B400AF044B5B68034A43F00103536091
:10172C0000BFBD4680BC7047002004E080B400AF11
:10173C00044B5B68034A23F00103536000BFBD46B2
:10174C0080BC7047002004E080B400AF044B5B68A1
:10175C00034A43F00203536000BFBD4680BC704790
:10176C00002004E080B400AF044B5B68034A23F014
:10177C000203536000BFBD4680BC7047002004E0EC
:10178C0080B400AF044B5B68034A43F0040353601E
:10179C0000BFBD4680BC7047002004E080B400AFA1
:1017AC00044B5B68034A23F00403536000BFBD463F
:1017BC0080BC7047002004E080B485B000AF786036
:1017CC007B6803F00703FB600C4BDB68BB60BA68FB
:1017DC004FF6FF031340BB60FB681A02BB68134350
:1017EC0043F0BF6343F40033BB60044ABB68D3606F
:1017FC0000BF1437BD4680BC704700BF00ED00E051
:10180C0080B400AF044BDB681B0A03F007031846D7
:10181C00BD4680BC704700BF00ED00E080B483B0D3
:10182C0000AF03463960FB7197F90730002B0ADBD8
:10183C003B68DAB20C4997F907301201D2B20B446B
:10184C0083F800230AE03B68DAB20849FB7903F01D
:10185C000F03043B1201D2B20B441A7600BF0C37B3
:10186C00BD4680BC704700BF00E100E000ED00E029
:10187C0080B489B000AFF860B9607A60FB6803F09F
:10188C000703FB61FB69C3F10703042B28BF042387
:10189C00BB61FB690433062B02D9FB69033B00E0F7
:1018AC0000237B614FF0FF32BB6902FA03F3DA438A
:1018BC00BB681A407B699A404FF0FF317B6901FA93
:1018CC0003F3D9437B680B40134318462437BD46BA
:1018DC0080BC704780B582B000AF78607B68013BFC
:1018EC00B3F1807F01D301230FE00A4A7B68013BEF
:1018FC0053600F214FF0FF30FFF790FF054B002294
:10190C009A60044B07221A60002318460837BD461C
:10191C0080BD00BF10E000E080B582B000AF786001
:10192C007868FFF749FF00BF0837BD4680BD80B51A
:10193C0086B000AF0346B9607A60FB7300237B610D
:10194C00FFF75EFF78617A68B9687869FFF790FFF6
:10195C00024697F90F3011461846FFF75FFF00BF9C
:10196C001837BD4680BD80B582B000AF786078680E
:10197C00FFF7B0FF034618460837BD4680BD00BFD1
:10198C0080B400AF00BFBD4680BC704780B400AFD0
:10199C0001231846BD4680BC704780B582B000AFAD
:1019AC007860396000F0DEFB034616221A604FF0B7
:1019BC00FF3318460837BD4680BD80B582B000AFF6
:1019CC0078604FF0FF317868FFF7E7FFFEE780B5EE
:1019DC0086B000AFF860B9607A6000237B610AE0E2
:1019EC00AFF300800146BB685A1CBA60CAB21A70C9
:1019FC007B6901337B617A697B689A42F0DB7B6897
:101A0C0018461837BD4680BD80B586B000AFF8606B
:101A1C00B9607A6000237B6109E0BB685A1CBA602C
:101A2C001B781846AFF300807B6901337B617A69C0
:101A3C007B689A42F1DB7B6818461837BD4680BD3F
:101A4C0080B483B000AF78604FF0FF3318460C378A
:101A5C00BD4680BC704780B483B000AF78603960FD
:101A6C003B684FF400525A60002318460C37BD46B1
:101A7C0080BC704780B483B000AF786001231846F7
:101A8C000C37BD4680BC704780B485B000AFF860A1
:101A9C00B9607A60002318461437BD4680BC704785
:101AAC000EB480B482B000AF78604FF0FF331846AC
:101ABC000837BD4680BC03B0704780B582B000AF1C
:101ACC00786000F04FFB03460A221A604FF0FF3398
:101ADC0018460837BD4680BD80B582B000AF78602F
:101AEC0000F040FB034602221A604FF0FF33184609
:101AFC000837BD4680BD80B483B000AF78604FF02E
:101B0C00FF3318460C37BD4680BC704780B483B099
:101B1C0000AF786039603B684FF400525A60002384
:101B2C0018460C37BD4680BC704780B582B000AFFC
:101B3C007860396000F016FB03461F221A604FF0E4
:101B4C00FF3318460837BD4680BD80B500AF00F0A6
:101B5C0009FB03460B221A604FF0FF33184680BD79
:101B6C0080B584B000AFF860B9607A6000F0FAFA22
:101B7C0003460C221A604FF0FF3318461037BD464F
:101B8C0080BD80B584B000AF7860124B1B68002B11
:101B9C0002D1104B104A1A600E4B1B68FB600D4BA8
:101BAC001A687B6813446A46934207D900F0DAFA44
:101BBC0003460C221A604FF0FF3306E0054B1A68FF
:101BCC007B681344034A1360FB6818461037BD4604
:101BDC0080BD00BF78000020E8010020F825000837
:101BEC00000000207000002070000020E8010020A0
:101BFC000348044B834202D0034B03B11847704790
:101C0C007000002070000020000000000548064B0A
:101C1C001B1AD90F01EBA301491002D0034B03B1DE
:101C2C001847704770000020700000200000000072
:101C3C0010B5064C237843B9FFF7DAFF044B13B108
:101C4C000448AFF300800123237010BD7C000020FA
:101C5C0000000000E425000808B5054B1BB1054940
:101C6C000548AFF30080BDE80840FFF7CFBF00BFC9
:101C7C000000000080000020E4250008002103E0A3
:101C8C000B4B5B58435004310A480B4B42189A4299
:101C9C00F6D30A4A02E0002342F8043B084B9A426E
:101CAC00F9D3FEF7B3FA00F063FAFEF767FA704760
:101CBC00F8250008000000207000002070000020B3
:101CCC00E8010020FEE7000008B5064B044613B1FE
:101CDC000021AFF30080044B1B6803B198472046EA
:101CEC00FFF76BFE00000000D0010020002310B5B0
:101CFC000446C0E90033C0E9043383608181436644
:101D0C00C2818361194608225C3000F07FF90D4BCB
:101D1C00246263620C4BA3620C4BE3620C4B236397
:101D2C000C4B9C4206D003F16802944202D0D03393
:101D3C009C4205D104F15800BDE8104000F03DBABA
:101D4C0010BD00BF8D1F0008B31F0008EB1F00085B
:101D5C001120000898000020024A0349034800F0B3
:101D6C00F1B800BF14000020C52400082400002096
:101D7C0041680C4B10B59942044601D000F09CFB15
:101D8C00A168094B994202D0204600F095FBE1680E
:101D9C00064B994204D02046BDE8104000F08CBBA5
:101DAC0010BD00BF98000020000100206801002039
:101DBC0008B54B6EDA0705D48B899B0502D4886D68
:101DCC0000F0FFF9002008BD08B54B6EDA0705D40A
:101DDC008B899B0502D4886D00F0F9F9002008BDB1
:101DEC000C4B0D4A10B504211A600C480022FFF769
:101DFC007DFF0A4B01221C46092103F16800FFF705
:101E0C0075FF04F1D0000222BDE810401221FFF74B
:101E1C006DBF00BFD0010020651D00089800002098
:101E2C00014800F0CEB900BFDF010020014800F0EE
:101E3C00CEB900BFDF010020F8B50746FFF7F0FF71
:101E4C00234B1B680BB9FFF7CBFF224ED6E90134AD
:101E5C00013B0FD53568002D38D14FF4D67138467B
:101E6C0000F020FA044628BB3060FFF7DFFF0C239C
:101E7C003B601BE0B4F90C50D5B9174B04F158007A
:101E8C00E360656600F099F9FFF7D0FF0822294658
:101E9C00C4E90155C4E904552560A56104F15C0051
:101EAC0000F0B4F8C4E90D55C4E912552046F8BD4C
:101EBC006834CDE7042305602946254643600C3081
:101ECC004FF4D072A06000F0A1F834602E46BDE74C
:101EDC00D0010020140000200100FFFF10B50446C3
:101EEC00FFF79EFF236A1BB1BDE81040FFF79EBFB2
:101EFC00044B2362044B1B68002BF5D1FFF770FFDA
:101F0C00F2E700BF7D1D0008D001002008B5FFF7E7
:101F1C0087FFBDE808400020014A024900F012B8D2
:101F2C0014000020BD1D000808B50020034A044918
:101F3C0000F008F8BDE80840FFF778BF1400002057
:101F4C00D51D00082DE9F84307468846144600269F
:101F5C00D4E90195B9F1010905D52468002CF7D114
:101F6C003046BDE8F883AB89012B07D9B5F90E30A3
:101F7C00013303D029463846C04706436835E9E7A4
:101F8C0010B50C46B1F90E1000F0C8F80028ABBF24
:101F9C00636DA3891B1823F48053ACBF6365A381C5
:101FAC0010BD002070472DE9F0411F468B89054676
:101FBC00DB050C46164605D502230022B1F90E109E
:101FCC0000F09AF8A389324623F48053A381284663
:101FDC003B46B4F90E10BDE8F04100F0B1B810B5B5
:101FEC000C46B1F90E1000F087F8B4F90C30421C15
:101FFC000BBF23F4805343F48053A381A38118BFF8
:10200C00606510BDB1F90E1000F008B8034602442B
:10201C00934200D1704703F8011BF9E738B5002350
:10202C00054D044608462B60FFF70AFD431C02D100
:10203C002B6803B1236038BDD40100202D4B70B543
:10204C001B680446834253D0C3691BB3DB6863B17E
:10205C000025E369DB685959B1B90435802DF8D1F5
:10206C00E3692046D96800F0B3F8E369196811B147
:10207C00204600F0ADF8E3699D685DB12946204625
:10208C002D6800F0A5F8F8E70E68204600F0A0F8DF
:10209C003146E1E7616911B1204600F099F8E16938
:1020AC0011B1204600F094F8216B11B1204600F0DC
:1020BC008FF8616B11B1204600F08AF8A16B11B159
:1020CC00204600F085F8A16C11B1204600F080F894
:1020DC00616C11B1204600F07BF8E16A11B1204629
:1020EC0000F076F8236A1BB12046BDE87040184713
:1020FC0070BD00BF2000002038B5044608461146CC
:10210C000022054D2A601A46FFF7BEFC431C02D183
:10211C002B6803B1236038BDD401002038B50446C8
:10212C00084611460022054D2A601A46FFF74FFC5F
:10213C00431C02D12B6803B1236038BDD4010020AD
:10214C0038B50446084611460022054D2A601A4649
:10215C00FFF75AFC431C02D12B6803B1236038BD36
:10216C00D4010020014B1868704700BF20000020EC
:10217C0070B500260C4D0D4B5B1B9C10A64209D173
:10218C00002600F01DFA0A4D0A4B5B1B9C10A64260
:10219C0005D170BD55F8043B98470136EEE755F86C
:1021AC00043B98470136F2E7F0250008F0250008BB
:1021BC00F0250008F42500087047704770477047F9
:1021CC007047704701207047012070477047704777
:1021DC0038B50546002940D051F8043C0C1F002BA3
:1021EC00B8BFE41800F0DEF81C4A136833B963601A
:1021FC0014602846BDE8384000F0DAB8A34208D98C
:10220C00206821188B4201BF19685B68091821608E
:10221C00EDE71A465B680BB1A342FAD91168501866
:10222C00A0420BD120680144501883421160E0D1C8
:10223C0018685B68084410605360DAE702D90C2315
:10224C002B60D6E7206821188B4201BF19685B68A8
:10225C000918216063605460CBE738BDE4010020AD
:10226C0070B50F4E0C463168054611B900F060F997
:10227C0030602146284600F05BF9431C03D14FF037
:10228C00FF34204670BDC41C24F00304A042F8D0D7
:10229C00211A284600F04CF90130F2D1EFE700BFCB
:1022AC00E00100202DE9F843CD1C25F0030508358D
:1022BC000C2D38BF0C25002D064601DBA94204D994
:1022CC000C2333600020BDE8F883DFF8D48000F0E5
:1022DC0069F8D8F800301C4644BB29463046FFF755
:1022EC00BFFF431C044658D1D8F800402746002FA6
:1022FC0043D1002C4BD023683946304604EB0309FC
:10230C0000F016F9814542D1216830466D1A2946F4
:10231C00FFF7A6FF01303AD023682B442360D8F88E
:10232C0000305A6862BBC8F800700FE02268521B7C
:10233C0020D40B2A17D96119A342256018BF596004
:10234C00636808BFC8F8001062514B60304600F05B
:10235C002FF804F10B00231D20F00700C21A1CBF3C
:10236C001B1AA350AFE76268A3420CBFC8F8002049
:10237C005A60EBE723466468AEE73C467F68B6E7F5
:10238C001A465B68A342FBD100235360DEE70C23A3
:10239C003046336000F00CF894E70560D6E700BFD8
:1023AC00E40100200148FFF70CBF00BFDC01002056
:1023BC000148FFF70CBF00BFDC010020B1F90C2075
:1023CC00F8B5160705460C4651D44B68002B02DCB9
:1023DC000B6C002B49DDE66A002E46D0002312F46C
:1023EC0080522F682B6031D0626DA389590705D5B7
:1023FC006368D21A636B0BB1236CD21A0023284684
:10240C00E66A216AB047421CB4F90C3006D129683F
:10241C001D2945D8274ACA40D60741D500226260FB
:10242C002269D904226004D5421C01D12B6803B95E
:10243C006065616B2F60C1B104F14403994202D015
:10244C002846FFF7C5FE002363630EE001232846F0
:10245C00216AB0470246501CC7D12B68002BC4D050
:10246C001D2B01D0162B19D12F6000201DE00F69F8
:10247C00002FFAD0930718BF00230E6808BF4B69D2
:10248C00F61B0F608B60002EEFDD33463A46284674
:10249C00216AD4F828C0E047002807DCB4F90C30D6
:1024AC004FF0FF3043F04003A381F8BD0744361AC8
:1024BC00E9E700BF0100402038B50B6905460C4622
:1024CC0013B90025284638BD18B1036A0BB9FFF7BC
:1024DC0005FDB4F90C30002BF3D0626ED00704D498
:1024EC00990502D4A06DFFF76CFE28462146FFF734
:1024FC0065FF636E0546DA07E4D4A3899B05E1D436
:10250C00A06DFFF764FEDDE7014620B9044A0549DA
:10251C000548FFF717BD054B1868FFF7CDBF00BF87
:10252C0014000020C52400082400002020000020F6
:10253C0038B50023054D044608462B60FFF721FBF8
:10254C00431C02D12B6803B1236038BDD401002099
:10255C000000000000000000010203040607080947
:10256C000000000001020304020304050607080929
:10257C000A0B0C0D0E0F10103E410C41114127415E
:10258C0036410341064115410F410E41264113418D
:10259C002941024119410A410B4100003E410C41C5
:1025AC001141274136410341064115410F410E416E
:1025BC00264113412941024119410A410B410000B6
:0C25CC00F8B500BFF8BC08BC9E46704784
:0C25D800F8B500BFF8BC08BC9E46704778
:0425E40000000000F3
:0825E80024DBFF7F010000006D
:0425F000651C00085E
:0425F4003D1C000882
:1025F8000024F40010000000010000007400002016
:102608000000000000000000030000009800002007
:102618002400002000000000980000200001002095
:102628006801002000000000000000000000000019
:102638000000000000000000000000000000000092
:102648000000000000000000000000000000000082
:102658000000000000000000000000000000000072
:040000050800010CE2
:00000001FF
